{
  "contractName": "PatientData",
  "abi": [
    {
      "constant": true,
      "inputs": [
        {
          "name": "",
          "type": "address"
        }
      ],
      "name": "PatientMedicalList",
      "outputs": [
        {
          "name": "id",
          "type": "address"
        },
        {
          "name": "weight",
          "type": "uint256"
        },
        {
          "name": "height",
          "type": "uint256"
        },
        {
          "name": "bloodGroup",
          "type": "string"
        },
        {
          "name": "diseaseName",
          "type": "string"
        },
        {
          "name": "diseaseDescription",
          "type": "string"
        },
        {
          "name": "diseaseStartedOn",
          "type": "string"
        }
      ],
      "payable": false,
      "stateMutability": "view",
      "type": "function",
      "signature": "0x07ebb5f4"
    },
    {
      "constant": true,
      "inputs": [],
      "name": "addr",
      "outputs": [
        {
          "name": "",
          "type": "address"
        }
      ],
      "payable": false,
      "stateMutability": "view",
      "type": "function",
      "signature": "0x767800de"
    },
    {
      "constant": true,
      "inputs": [
        {
          "name": "",
          "type": "uint256"
        }
      ],
      "name": "patients",
      "outputs": [
        {
          "name": "",
          "type": "address"
        }
      ],
      "payable": false,
      "stateMutability": "view",
      "type": "function",
      "signature": "0x93119a83"
    },
    {
      "constant": true,
      "inputs": [],
      "name": "patientCount",
      "outputs": [
        {
          "name": "",
          "type": "uint256"
        }
      ],
      "payable": false,
      "stateMutability": "view",
      "type": "function",
      "signature": "0xa0303c41"
    },
    {
      "constant": true,
      "inputs": [
        {
          "name": "",
          "type": "address"
        }
      ],
      "name": "PatientBioList",
      "outputs": [
        {
          "name": "id",
          "type": "address"
        },
        {
          "name": "name",
          "type": "string"
        },
        {
          "name": "birthDate",
          "type": "string"
        },
        {
          "name": "phoneNumber",
          "type": "string"
        },
        {
          "name": "_address",
          "type": "string"
        }
      ],
      "payable": false,
      "stateMutability": "view",
      "type": "function",
      "signature": "0xfa28ca2a"
    },
    {
      "inputs": [],
      "payable": false,
      "stateMutability": "nonpayable",
      "type": "constructor",
      "signature": "constructor"
    },
    {
      "constant": false,
      "inputs": [
        {
          "name": "patientName",
          "type": "string"
        },
        {
          "name": "birthDate",
          "type": "string"
        },
        {
          "name": "phoneNumber",
          "type": "string"
        },
        {
          "name": "_address",
          "type": "string"
        }
      ],
      "name": "addUpdatePatientBio",
      "outputs": [],
      "payable": false,
      "stateMutability": "nonpayable",
      "type": "function",
      "signature": "0xaca2169d"
    },
    {
      "constant": false,
      "inputs": [
        {
          "name": "weight",
          "type": "uint256"
        },
        {
          "name": "height",
          "type": "uint256"
        },
        {
          "name": "bloodGroup",
          "type": "string"
        },
        {
          "name": "diseaseName",
          "type": "string"
        },
        {
          "name": "diseaseDescription",
          "type": "string"
        },
        {
          "name": "diseaseStartedOn",
          "type": "string"
        }
      ],
      "name": "addUpdatePatientMedicalData",
      "outputs": [],
      "payable": false,
      "stateMutability": "nonpayable",
      "type": "function",
      "signature": "0xc113a6bc"
    }
  ],
  "bytecode": "0x60806040526000805560018054600160a060020a031916331790553480156200002757600080fd5b506040805160a08101825273b3a44ad28ed743efbd857b57e97480ffceaee97c80825282518084018452600e81527f56697368776173205061696b726100000000000000000000000000000000000060208083019190915280840191825284518086018652601881527f313939382d30392d32315431383a33303a30302e3030305a0000000000000000818301528486015284518086018652600a81527f31323233333434353536000000000000000000000000000000000000000000008183015260608086019190915285519081018652602c81527f686e6f353634207361692063686f776b206176616e7469206e61676172206561818301527f7374206268696c616920636700000000000000000000000000000000000000009581019590955260808401949094526000919091526003835281517f8a4a6e5247e0182969287f1e890acad5c9e392a3a48b4e0cedfb24259458d3858054600160a060020a031916600160a060020a039092169190911781559051805192939192620001d3927f8a4a6e5247e0182969287f1e890acad5c9e392a3a48b4e0cedfb24259458d3869201906200026f565b5060408201518051620001f19160028401916020909101906200026f565b50606082015180516200020f9160038401916020909101906200026f565b50608082015180516200022d9160048401916020909101906200026f565b50506000805460010180825581526002602052604090208054600160a060020a03191673b3a44ad28ed743efbd857b57e97480ffceaee97c1790555062000314565b828054600181600116156101000203166002900490600052602060002090601f016020900481019282601f10620002b257805160ff1916838001178555620002e2565b82800160010185558215620002e2579182015b82811115620002e2578251825591602001919060010190620002c5565b50620002f0929150620002f4565b5090565b6200031191905b80821115620002f05760008155600101620002fb565b90565b6111aa80620003246000396000f3fe6080604052600436106100825763ffffffff7c010000000000000000000000000000000000000000000000000000000060003504166307ebb5f48114610087578063767800de1461028b57806393119a83146102bc578063a0303c41146102e6578063aca2169d1461030d578063c113a6bc14610557578063fa28ca2a146107ab575b600080fd5b34801561009357600080fd5b506100ba600480360360208110156100aa57600080fd5b5035600160a060020a03166109a1565b6040518088600160a060020a0316600160a060020a0316815260200187815260200186815260200180602001806020018060200180602001858103855289818151815260200191508051906020019080838360005b8381101561012757818101518382015260200161010f565b50505050905090810190601f1680156101545780820380516001836020036101000a031916815260200191505b5085810384528851815288516020918201918a019080838360005b8381101561018757818101518382015260200161016f565b50505050905090810190601f1680156101b45780820380516001836020036101000a031916815260200191505b50858103835287518152875160209182019189019080838360005b838110156101e75781810151838201526020016101cf565b50505050905090810190601f1680156102145780820380516001836020036101000a031916815260200191505b50858103825286518152865160209182019188019080838360005b8381101561024757818101518382015260200161022f565b50505050905090810190601f1680156102745780820380516001836020036101000a031916815260200191505b509b50505050505050505050505060405180910390f35b34801561029757600080fd5b506102a0610c0f565b60408051600160a060020a039092168252519081900360200190f35b3480156102c857600080fd5b506102a0600480360360208110156102df57600080fd5b5035610c1e565b3480156102f257600080fd5b506102fb610c39565b60408051918252519081900360200190f35b34801561031957600080fd5b506105556004803603608081101561033057600080fd5b81019060208101813564010000000081111561034b57600080fd5b82018360208201111561035d57600080fd5b8035906020019184600183028401116401000000008311171561037f57600080fd5b91908080601f01602080910402602001604051908101604052809392919081815260200183838082843760009201919091525092959493602081019350359150506401000000008111156103d257600080fd5b8201836020820111156103e457600080fd5b8035906020019184600183028401116401000000008311171561040657600080fd5b91908080601f016020809104026020016040519081016040528093929190818152602001838380828437600092019190915250929594936020810193503591505064010000000081111561045957600080fd5b82018360208201111561046b57600080fd5b8035906020019184600183028401116401000000008311171561048d57600080fd5b91908080601f01602080910402602001604051908101604052809392919081815260200183838082843760009201919091525092959493602081019350359150506401000000008111156104e057600080fd5b8201836020820111156104f257600080fd5b8035906020019184600183028401116401000000008311171561051457600080fd5b91908080601f016020809104026020016040519081016040528093929190818152602001838380828437600092019190915250929550610c3f945050505050565b005b34801561056357600080fd5b50610555600480360360c081101561057a57600080fd5b8135916020810135918101906060810160408201356401000000008111156105a157600080fd5b8201836020820111156105b357600080fd5b803590602001918460018302840111640100000000831117156105d557600080fd5b91908080601f016020809104026020016040519081016040528093929190818152602001838380828437600092019190915250929594936020810193503591505064010000000081111561062857600080fd5b82018360208201111561063a57600080fd5b8035906020019184600183028401116401000000008311171561065c57600080fd5b91908080601f01602080910402602001604051908101604052809392919081815260200183838082843760009201919091525092959493602081019350359150506401000000008111156106af57600080fd5b8201836020820111156106c157600080fd5b803590602001918460018302840111640100000000831117156106e357600080fd5b91908080601f016020809104026020016040519081016040528093929190818152602001838380828437600092019190915250929594936020810193503591505064010000000081111561073657600080fd5b82018360208201111561074857600080fd5b8035906020019184600183028401116401000000008311171561076a57600080fd5b91908080601f016020809104026020016040519081016040528093929190818152602001838380828437600092019190915250929550610d65945050505050565b3480156107b757600080fd5b506107de600480360360208110156107ce57600080fd5b5035600160a060020a0316610e7d565b6040518086600160a060020a0316600160a060020a0316815260200180602001806020018060200180602001858103855289818151815260200191508051906020019080838360005b8381101561083f578181015183820152602001610827565b50505050905090810190601f16801561086c5780820380516001836020036101000a031916815260200191505b5085810384528851815288516020918201918a019080838360005b8381101561089f578181015183820152602001610887565b50505050905090810190601f1680156108cc5780820380516001836020036101000a031916815260200191505b50858103835287518152875160209182019189019080838360005b838110156108ff5781810151838201526020016108e7565b50505050905090810190601f16801561092c5780820380516001836020036101000a031916815260200191505b50858103825286518152865160209182019188019080838360005b8381101561095f578181015183820152602001610947565b50505050905090810190601f16801561098c5780820380516001836020036101000a031916815260200191505b50995050505050505050505060405180910390f35b600460209081526000918252604091829020805460018083015460028085015460038601805489516101009682161596909602600019011692909204601f8101889004880285018801909852878452600160a060020a03909416969195939493909190830182828015610a555780601f10610a2a57610100808354040283529160200191610a55565b820191906000526020600020905b815481529060010190602001808311610a3857829003601f168201915b5050505060048301805460408051602060026001851615610100026000190190941693909304601f8101849004840282018401909252818152949594935090830182828015610ae55780601f10610aba57610100808354040283529160200191610ae5565b820191906000526020600020905b815481529060010190602001808311610ac857829003601f168201915b5050505060058301805460408051602060026001851615610100026000190190941693909304601f8101849004840282018401909252818152949594935090830182828015610b755780601f10610b4a57610100808354040283529160200191610b75565b820191906000526020600020905b815481529060010190602001808311610b5857829003601f168201915b5050505060068301805460408051602060026001851615610100026000190190941693909304601f8101849004840282018401909252818152949594935090830182828015610c055780601f10610bda57610100808354040283529160200191610c05565b820191906000526020600020905b815481529060010190602001808311610be857829003601f168201915b5050505050905087565b600154600160a060020a031681565b600260205260009081526040902054600160a060020a031681565b60005481565b33600090815260036020526040902054600160a060020a03161515610c9157600080546001018082558152600260205260409020805473ffffffffffffffffffffffffffffffffffffffff1916331790555b6040805160a0810182523380825260208083018881528385018890526060840187905260808401869052600092835260038252939091208251815473ffffffffffffffffffffffffffffffffffffffff1916600160a060020a0390911617815592518051929392610d0892600185019201906110e3565b5060408201518051610d249160028401916020909101906110e3565b5060608201518051610d409160038401916020909101906110e3565b5060808201518051610d5c9160048401916020909101906110e3565b50505050505050565b33600090815260036020526040902054600160a060020a03161515610d8957610e75565b6040805160e0810182523380825260208083018a81528385018a8152606085018a8152608086018a905260a0860189905260c08601889052600094855260048452959093208451815473ffffffffffffffffffffffffffffffffffffffff1916600160a060020a0390911617815590516001820155915160028301559251805192939192610e1d92600385019201906110e3565b5060808201518051610e399160048401916020909101906110e3565b5060a08201518051610e559160058401916020909101906110e3565b5060c08201518051610e719160068401916020909101906110e3565b5050505b505050505050565b6003602090815260009182526040918290208054600180830180548651600261010094831615949094026000190190911692909204601f8101869004860283018601909652858252600160a060020a03909216949293909290830182828015610f275780601f10610efc57610100808354040283529160200191610f27565b820191906000526020600020905b815481529060010190602001808311610f0a57829003601f168201915b50505060028085018054604080516020601f6000196101006001871615020190941695909504928301859004850281018501909152818152959695945090925090830182828015610fb95780601f10610f8e57610100808354040283529160200191610fb9565b820191906000526020600020905b815481529060010190602001808311610f9c57829003601f168201915b5050505060038301805460408051602060026001851615610100026000190190941693909304601f81018490048402820184019092528181529495949350908301828280156110495780601f1061101e57610100808354040283529160200191611049565b820191906000526020600020905b81548152906001019060200180831161102c57829003601f168201915b5050505060048301805460408051602060026001851615610100026000190190941693909304601f81018490048402820184019092528181529495949350908301828280156110d95780601f106110ae576101008083540402835291602001916110d9565b820191906000526020600020905b8154815290600101906020018083116110bc57829003601f168201915b5050505050905085565b828054600181600116156101000203166002900490600052602060002090601f016020900481019282601f1061112457805160ff1916838001178555611151565b82800160010185558215611151579182015b82811115611151578251825591602001919060010190611136565b5061115d929150611161565b5090565b61117b91905b8082111561115d5760008155600101611167565b9056fea165627a7a7230582080a09398d4e50f4a11900eb448c07ec8043f27d1086b2a11819d7c4dde68b2f30029",
  "source": "pragma solidity 0.5.0;\n\n\ncontract PatientData {\n  uint256 public patientCount = 0;\n  address public addr = msg.sender;\n  mapping(uint => address) public patients;\n  mapping(address => PatientBio) public PatientBioList;\n  mapping(address => PatientMedicalData) public PatientMedicalList;\n\n  struct PatientBio {\n    address id;\n    string name;\n    string birthDate;\n    string phoneNumber;\n    string _address; \n  }\n\n  struct PatientMedicalData {\n    address id;\n    uint weight;\n    uint height;\n    string bloodGroup;\n    string diseaseName;\n    string diseaseDescription;\n    string diseaseStartedOn;\n  }\n\n  constructor() public {\n    PatientBioList[0xb3a44ad28ed743eFBd857B57e97480ffCEaee97c] \n      = PatientBio(0xb3a44ad28ed743eFBd857B57e97480ffCEaee97c, \"Vishwas Paikra\", \"1998-09-21T18:30:00.000Z\", \"1223344556\", \"hno564 sai chowk avanti nagar east bhilai cg\");\n    patients[++patientCount] = 0xb3a44ad28ed743eFBd857B57e97480ffCEaee97c;\n  }\n\n  function addUpdatePatientBio(\n    string memory patientName, \n    string memory birthDate, \n    string memory phoneNumber, \n    string memory _address\n    ) public {\n    if(PatientBioList[msg.sender].id == address(0x0))\n      patients[++patientCount] = msg.sender;\n    PatientBioList[msg.sender] = \n      PatientBio(msg.sender, patientName, birthDate, phoneNumber, _address);\n  }\n\n  function addUpdatePatientMedicalData(\n    uint weight,\n    uint height,\n    string memory bloodGroup,\n    string memory diseaseName,\n    string memory diseaseDescription,\n    string memory diseaseStartedOn\n    ) public {\n    if(PatientBioList[msg.sender].id == address(0x0))\n    {\n      return;\n    }\n    PatientMedicalList[msg.sender] = \n      PatientMedicalData(msg.sender, weight, height, bloodGroup, diseaseName, diseaseDescription, diseaseStartedOn);\n  }\n}\n",
  "sourcePath": "/media/vishwas/7A86A113660FE332/blockchain/ethereum-patient-data-management-system/contracts/PatientData.sol",
  "compiler": {
    "name": "solc",
    "version": "0.5.0+commit.1d4f565a.Emscripten.clang"
  },
  "schemaVersion": "3.0.1",
  "updatedAt": "2021-04-28T10:21:03.542Z",
  "devdoc": {
    "methods": {}
  },
  "userdoc": {
    "methods": {}
  }
}